:020000040002F8
:1060000020570020C1630200C9630200CB63020075
:10601000CD630200CF630200D163020000000000E4
:10602000000000000000000000000000D363020038
:10603000D563020000000000D7630200D9630200AC
:1060400091670200DB6302000D6A0200DB6302005D
:10605000DB630200DB63020079650200DB630200A0
:10606000DB630200DB630200DB630200DB63020030
:10607000DB630200DB630200DB630200DB63020020
:10608000DB630200E9670200DB630200DB630200FE
:106090000D680200DB63020011680200DB6302008E
:1060A000DB630200DB630200DB630200DB630200F0
:1060B000DB630200DB630200000000000000000060
:1060C000DB630200DB630200DB630200DB630200D0
:1060D000DB630200DB630200DB630200DB630200C0
:1060E000DB630200DB630200DB63020000000000F0
:1060F00000000000DB63020000000000DB63020020
:10610000000000000000000000000000000000008F
:10611000000000000000000000000000000000007F
:10612000000000000000000000000000000000006F
:10613000000000000000000000000000000000005F
:10614000000000000000000000000000000000004F
:10615000000000000000000000000000000000003F
:10616000000000000000000000000000000000002F
:10617000000000000000000000000000000000001F
:10618000000000000000000000000000000000000F
:1061900000000000000000000000000000000000FF
:1061A00000000000000000000000000000000000EF
:1061B00000000000000000000000000000000000DF
:1061C00000000000000000000000000000000000CF
:1061D00000000000000000000000000000000000BF
:1061E00000000000000000000000000000000000AF
:1061F000000000000000000000000000000000009F
:10620000DFF80CD000F07AF900480047A5B302008F
:106210002057002030B450E8012F93B2C4892344A2
:106220008489A34228BF1B1B0489A34202BFBFF37A
:106230002F8F002007E0C3EA020340E80134002C5E
:10624000E9D14FF001000A6030BC704750E8012FDF
:10625000C2EA024240E801210029F7D1704730B478
:1062600050E8022F1FFAA2F3C488A34202BFBFF373
:106270002F8F00200DE0C48923448489A34228BFC6
:106280001B1BC2EA034340E80234002CE8D14FF064
:1062900001000A6030BC704750E8022FC2EA224277
:1062A00040E802210029F7D17047034653E8022F46
:1062B000D988B2EB324F4FF0000017BF92B241EADB
:1062C000014142EA014104E05A68B2EB324F08BF93
:1062D000012043E80212002AE8D1704730B4044696
:1062E00054E8000F0D4644E80053002BF8D1156028
:1062F00030BC704730B4044654E8000F40EA010552
:1063000044E80053002BF7D1156030BC704730B41F
:10631000044654E8000F00EA010544E80053002B4E
:10632000F7D1156030BC704730B4044654E8000F14
:1063300080EA010544E80053002BF7D1156030BC1A
:10634000704730B4044654E8000F00EB010544E800
:106350000053002BF7D1156030BC704730B40446B1
:1063600054E8000FA0EB010544E80053002BF7D1DF
:10637000156030BC704770B404464FF0000054E81C
:10638000006F0D68AE4207BF44E80023012044E8D7
:1063900000630E60002B1CBF0020F0E770BC70474C
:1063A00030B4044654E8000F88422CBF451A054615
:1063B00044E80053002BF5D1156030BC7047000055
:1063C0000648804706480047FEE7FEE7FEE7FEE78F
:1063D000FEE7FEE7FEE7FEE7FEE7FEE731680200C4
:1063E000016202002DE9F05F0546002092469B46BF
:1063F00088460646814640241BE0284641464746DB
:10640000224600F06BF853465A46C01A914110D309
:1064100011461846224600F016F82D1A67EB0108BF
:106420004F4622460120002100F00DF817EB00092D
:106430004E41201EA4F10104DFDC484631462A46C5
:106440004346BDE8F09F202A04DB203A00FA02F11F
:10645000002070479140C2F1200320FA03F3194352
:106460009040704700487047641F030040EA0103F2
:106470009B0703D009E008C9121F08C0042AFAD2FA
:1064800003E011F8013B00F8013B521EF9D27047BE
:10649000D2B201E000F8012B491EFBD27047002266
:1064A000F6E710B513460A4604461946FFF7F0FF13
:1064B000204610BD421C10F8011B0029FBD1801A98
:1064C000704730B504460020034600E05B1C934251
:1064D00003D2E05CCD5C401BF8D030BD202A04DB49
:1064E000203A21FA02F00021704721FA02F3D0404D
:1064F000C2F120029140084319467047064C074DEF
:1065000006E0E06840F0010394E807009847103483
:10651000AC42F6D3FFF778FEF02603001027030005
:1065200070B58C1810F8015B15F0070301D110F855
:10653000013B2A1106D110F8012B03E010F8016B82
:1065400001F8016B5B1EF9D12B0705D40023521E05
:106550000DD401F8013BFAE710F8013BCB1A921C6D
:1065600003E013F8015B01F8015B521EF9D5A1426B
:10657000D8D3002070BD00002DE9F04F00268DB06B
:10658000DFF8A081B14604964FF4807501243746A8
:106590000596284606F024F838B1D8F804032042BE
:1065A00003D0284606F012F826432D1D64007F1CF8
:1065B000ADB2082FEDD34FF4BE74204606F010F8AC
:1065C00048B1204606F002F846F0004604AA02212F
:1065D000002005F0E5FF544C16F0FF0F15D0012701
:1065E000002537420DD008EB8501D1F81005D1F810
:1065F0001015C0F3052054F82520C1F3014102B164
:1066000090477F006D1C082DEBD3002E7EDA002012
:10661000CDF82890411E0DF1100B07AACDF82C9053
:1066200042F82010401C91460228F9D300252E463E
:10663000A11911F8607F91F9000027F0C008401CF3
:1066400040D007A9404605F056F940B34FEA971AE3
:10665000404602F07DFC54F820701FB1BAF1030FE0
:1066600003D006E0BAF1030F2CD10AA9404605F089
:106670004AF902A8CDF8088005F02CFF029900EB3A
:106680008100D0F8000704A9C0F301400290404601
:1066900005F031F90028029802D0022802D011E05A
:1066A00003280FD1BAF1030F08D10298022833D082
:1066B0000221404605F0DEFE6D1CEDB217B15146D9
:1066C0004046B847761C042EB2D3002D21D001AA33
:1066D0000221002005F064FF00205A460DF104015C
:1066E00052F8206051F82030B34217D000200AAE93
:1066F0004FEA090351F8207042F8207056F82070D4
:1067000043F82070401C0228F4D300E001E0002D83
:106710008CD10DB0BDE8F08F0321CAE7401C0228E0
:10672000DED3F6E700600040782E002000F01F0264
:10673000012191404009800000F1E020C0F8801262
:10674000704700F01F02012191404009800000F1D4
:10675000E020C0F80011704700F01F0201219140B5
:106760004009800000F1E020C0F80012704749079E
:10677000090E002806DA00F00F0000F1E02080F892
:10678000141D704700F1E02080F8001470470000ED
:1067900070B54FF48076304605F0ECF9114CB50534
:1067A00060B1304605F0EDF90120C5F808036079C5
:1067B00020B9012060712168002088474FF482765B
:1067C000304605F0D7F900280AD0304605F0D9F94F
:1067D0000220C5F808032168BDE870400120084781
:1067E00070BD0000B826002007480021C0F8401105
:1067F000C0F84411C0F84811C0F84C11C0F800119D
:10680000C0F804110AF07EBB001001400AF0C8BABB
:1068100010B50021054A084600F0CCFA002803D044
:10682000BDE8104000F0BABA10BD0000517102007E
:1068300030B54FF0805000228300D0F83011C3F8FB
:106840000C21C3F81021624B1A60624B1B68624C2A
:106850002360604B1B1D1B68241D23605D4B0833A8
:106860001B68241D23605B4B0C331B68241D2360B5
:10687000584B10331B68241D2360564B14331B6880
:10688000241D2360534B18331B68534C2034236062
:10689000504B1C331B68241D23604E4B20331B6858
:1068A000241D23604B4B24331B68241D2360494B5C
:1068B00028331B68241D2360464B2C331B68241D82
:1068C0002360444B30331B68434C40342360414BBE
:1068D00034331B68241D23603E4B38331B68241D52
:1068E00023603C4B3C331B68241D2360394B4033F1
:1068F0001B68241D23600124082902D1D0F83431FB
:1069000013B1082904D006E0354B3449196005E07D
:10691000D0F8343113B1082904D006E0314BFB2103
:10692000196005E0D0F8343113B1082908D00EE021
:1069300090F858322C48016863F30301016002E0CB
:10694000D0F834311BB929494FF400700860284849
:106950000168C90702D06FF0010101602548016894
:1069600041F470010160BFF34F8FBFF36F8F4FF0A1
:106970001021D1F80002002803DBD1F8040200281E
:1069800022DA1D4B1C601D480468002CFCD0122428
:10699000C1F800420568002DFCD0C1F8044201682E
:1069A0000029FCD01A6001680029FCD0BFF34F8F8A
:1069B00010487C380168124A01F4E061114301601B
:1069C000BFF34F8F00BFFDE70F490E48086030BD91
:1069D000380500400404001020C500404881030031
:1069E0008C56004018F50040E40E004040960240EE
:1069F0000004004088ED00E004E5014000E40140AF
:106A00000400FA050090D003FC270020014800682C
:106A100000470000C026002002E008C8121F08C17D
:106A2000002AFAD170477047002001E001C1121F0F
:106A3000002AFBD1704700000121202803DA8140A1
:106A40000548014003E0402802DA2038814009B1BE
:106A50000120704700207047FC06FFBD10B560B1F3
:106A600059B102780B785208B2EB530F05D10622C8
:106A7000401C491CFFF725FD08B1002010BD012076
:106A800010BD800701D00020704701207047C36807
:106A90008B4206D811440069491E814201D8012069
:106AA00070470020704710B501220221002001F03C
:106AB000D1FF08B1072810D107220221012001F0DF
:106AC000C9FF08B1072808D100210A22084601F0B1
:106AD000C1FF08B1072800D1002010BD00B5ABB040
:106AE000AC216846FFF7DBFC02208DF80000012096
:106AF00006218DF802008DF80310164905918DF8D6
:106B000079008DF87A000021ADF8100020918DF801
:106B10007C008DF87D004FF44860249044F2506072
:106B20008DF87B102191259028210B4822912990E6
:106B300040F6B831094823912A906946084800F088
:106B4000A0FD08B100F02AF90121054800F094FDEC
:106B50002BB000BDBA25002071DC02007F76020058
:106B6000E02800202DE9F04750B125480321008896
:106B700001EB004023A105F023FF08F061FD36E0A2
:106B80004FF6FF78424610212248FFF781FC224D44
:106B900008200446A8601F4F05F10806404608F08B
:106BA00017FC0021B1463160464608E0D9F80010D4
:106BB0004B00491CC9F80010F85208F009FCB0421B
:106BC00001D0641EF2D21348A96808F0A9FD08B1EB
:106BD00000F0E4F80F48A96808F094FA062802D0FB
:106BE00008B100F0DBF803210C4800F03AFE002861
:106BF00003D0BDE8F04700F0D1B8BDE8F087000051
:106C000048280020457261736520626F6E647321AD
:106C100000000000B82A0020B8250020E02800204D
:106C200070B58CB015460E4600236C46C3F10F01BB
:106C3000415CE1545B1C102BF8D30D2104F11000D2
:106C4000FFF72DFC0020C0F10F02315C2244401CF4
:106C500011740328F7D3684646DF0020C0F10F0106
:106C6000214491F820102954401C0328F6D30CB07D
:106C700070BD022001F0EABD0149097901F060B858
:106C80003C26002070B50024064D06E0686801210E
:106C900010F8340006F00EFB641C28788442F5D30B
:106CA000002070BDD8260020F8B515460C460646D3
:106CB000052A01D20720F8BD06F0F4FB18B906F04A
:106CC000B7FB0028F7D1124900224E600C708D608E
:106CD000C1E90422C1E906220E4D0DE006EBC40015
:106CE0002968009181788DF8011000780A4A694678
:106CF00006F02CFB0028DED1641EE4B2EED2BDE823
:106D0000F84004480021054A001D00F0D9B80000F1
:106D1000D8260020E41B030035A10200A99402003C
:106D200072B605F003FF00BF05F03AFD0028FBD165
:106D3000104C0121208801EB00400FA105F040FE1E
:106D400010480068C00700D000BE2088022101EB77
:106D500000400DA105F034FEBFF34F8F0948E43821
:106D600001680D4A01F4E06111430160BFF34F8FE8
:106D700000BFFDE748280020466174616C20657201
:106D8000726F7200F0ED00E053797374656D2072DC
:106D900065736574000000000400FA050EB500215B
:106DA0000091CDE901106A4644F20100FFF7B8FFF7
:106DB0000EBD00002DE9F84F254C814692466088B3
:106DC0000E46814241D800274FF6FF788DF80070BB
:106DD000684600F007F922786078A188884201DAD5
:106DE000401C00E00020C0B2904204D19DF8000099
:106DF00000F01CF927E065786078884201DA401CD1
:106E000000E0002060709DF8000000F00FF945459B
:106E100019D0A068B9F1000F40F835A00DD066B1C7
:106E20006188E068324605FB01004946FFF71EFB1A
:106E3000A06800EBC500868002E000EBC5008780FB
:106E40000020BDE8F88F0420FBE70920F9E70000E7
:106E5000F826002010B50E4C03E0401C00E0002096
:106E6000207020786178814210D022786188E068B3
:106E7000A36802FB010003EBC20153F832208988AA
:106E800090472078A1888842E9DAE6E710BD000043
:106E9000F826002030B5CB0008339DB293074FF0A1
:106EA000000401D0072030BD044B9A602A44DA6008
:106EB0005C701C7058809980002030BDF82600203E
:106EC000084B9B7823B12AB120B10068037C1BB129
:106ED0000820704707207047002303744174426103
:106EE00018467047542F002070B509F0F3F8104889
:106EF00000240B21047044700E4D817014206C60CE
:106F00002C706C70FFF712FC07211420FFF72FFC88
:106F10001420FFF716FC0848046007211120FFF732
:106F200026FC0548001F0068A860002070BD000016
:106F3000542F002008270020081501402DE9FC47A8
:106F4000DFF8789099F8023073B368B3052902D25C
:106F50000720BDE8FC87436933B3437C012B25D070
:106F6000002704460025884616468DF800506846DE
:106F700000F038F801A80AF06FFAC8B101210170D9
:106F80000F4944600968C0E90218C0E904769DF819
:106F9000040089F801009DF8000000F047F8142073
:106FA000FFF7DAFB2846D4E70820D2E70F46D8E7F8
:106FB00004259DF8000000F039F8F3E7542F002075
:106FC000041501400649897839B130B1416921B1D0
:106FD00000210174022109F071BF082070470000F0
:106FE000542F002030B5EFF3108172B60D4A94682B
:106FF000012324B10370002900D162B630BD936033
:107000004FF0E023D3F88051074C25401560C3F8BA
:107010008041D3F8844154605A17C3F88421002278
:107020000270E8E760300020FC06FFBD0B498A686B
:10703000002A11D000280FD1EFF3108072B60B6830
:107040004FF0E022C2F800314B68C2F80431002250
:107050008A60002800D162B67047000060300020CE
:1070600070B5054608680C46411C04D005F071FA5D
:10707000206805F0EBF96068411C02D0002105F0A2
:10708000D3F92968A069C1F82405607D227D2968AB
:107090001043C1F86C05D4E900122868C0F8142523
:1070A000C0F80C15207D012814D1A068411C02D025
:1070B000002105F0B9F9E068411C04D005F049FA57
:1070C000E06805F0C3F9D4E902122868C0F8082581
:1070D000C0F8101570BD70B5054608680C46411C17
:1070E00004D005F040FA206805F0BAF96068411C48
:1070F00002D0002105F0A1F92968A069C1F8240592
:10710000607D217D2A680843C2F86C05D4E900122D
:107110002868C0F80C15C0F81425207D012814D16A
:10712000A068411C02D0002105F087F9E068411CED
:1071300004D005F018FAE06805F092F9D4E90212DB
:107140002868C0F80825C0F8101570BD04F07AB89A
:1071500005F0B2BF400C01D00020704701207047FD
:107160002DE9F047074600888EB0804603F04AFCC0
:10717000824604462D4800252A460178404600F004
:10718000F7FD7879400734D501254FF6FF7603AB3C
:107190002A460721504607F0A3FB010004D04046D1
:1071A00009F0E6F900252BE0B1463146049803F0DA
:1071B0007CFB064648450FD004460146404603F096
:1071C0000BFC4046FFF758FD30B9404609F05CF92A
:1071D0004046FFF751FD48B122460721504607F0CF
:1071E000F5FB010003D0404609F0C2F900254E45E9
:1071F00006D0404607F058FD10B1504603F0EEFBB4
:1072000002208DF81800ADF81A807879400701D572
:10721000012000E002208DF820008DF8215006A802
:1072200002F0F0FA0EB0BDE8F08700003C26002026
:1072300000B585B014216846FFF731F900200090B1
:10724000029064208DF80C009DF80D00012120F0C3
:107250000F00401C20F0F00020308DF80D009DF84C
:107260000E008DF8041020F00F00401C20F0F000FC
:1072700020308DF80E009DF80F00694620F0FF00C9
:107280008DF80F009DF8100020F00F00401C20F03A
:10729000F00020308DF81000044800F06FFC00284A
:1072A00001D0FFF77BFD05B000BD0000782800206D
:1072B0002DE9F0430546407C93B00E460024A0B172
:1072C00007949DF81C0020F00F00401C20F0F000F7
:1072D00010308DF81C00707B8DF81D009DF81E008D
:1072E00020F00600801C8DF81E001C216846FFF768
:1072F000D6F89DF8000040F002008DF80000697C8F
:1073000011B140F0100001E020F010008DF80000F5
:10731000019403940494687C00B107A8CDE90504A6
:1073200001278DF8427042F61920ADF840000D9407
:10733000B07B8DF83400F07B8DF835009DF8360079
:10734000142120F00600801C20F019008DF8360072
:10735000307B8DF8440008A8FFF7A1F80DF1400834
:107360000DF13409ADF8287011A8CDE90889ADF800
:107370002A40ADF82C700C90A888AB1D08AA69466D
:10738000AADF002838D1B06898B38DF8427042F671
:107390000810ADF840000D94307C8DF834009DF855
:1073A000350020F0FF008DF835009DF8360020F004
:1073B0000600801C20F019008DF836000EA8B16878
:1073C00001F03AF90646142108A8FFF768F8ADF86D
:1073D00028600EA8CDE90889ADF82A40ADF82C60E8
:1073E0000C90E88805F10E0208A9ABDF002803D154
:1073F00001E0FFE7EC81002013B0BDE8F08300F06E
:1074000001B8000010B50F490F4809F0FCF8C1B2EF
:107410000C484FF6FE72143800F050FB00280FD0D5
:1074200011280DD013280BD00F2809D0082807D019
:1074300043F20141884203D0BDE81040FFF7AEBCE3
:1074400010BD00008C280020102200200A460146B2
:107450001046AEDF704770B51500044609D0002015
:10746000286034B1206820B1A079800703D00720BC
:1074700070BD0E2070BD084600F002FCC0B214289A
:1074800004D02179814203D8042070BD052070BD4D
:10749000E288216800FB02102860002070BD2DE901
:1074A000FC47002517880646158090F82D001446E5
:1074B000894630B13A462146484600F083FC051E15
:1074C00009D1B0784FF00C0A18B32088C846001DC7
:1074D000B84202D95046BDE8FC87684679DF0028EB
:1074E000F9D12088032108F8001020881921401CB8
:1074F00080B2208008F800102088401C80B22080D4
:1075000000EB0801BDF8000009F0D4FE2188084412
:107510002080F0780222C8B1218896F9033001F169
:10752000030C4846BC45D5D8425421884FF0010C85
:10753000491C89B2218000F801C02188491C89B208
:10754000218009F801302088401C20807068B8B183
:10755000218890F9003001F1030C4846BC45B9D8A8
:10756000425421880A22491C89B221804254218830
:10757000491C89B2218009F801302088401C2080F4
:10758000308950B1CDE900474B460622022106F171
:10759000080009F079FF051E9DD1308A50B1CDE970
:1075A00000474B460722032106F1100009F06CFF4B
:1075B000051E90D1308B50B1CDE900474B461522C6
:1075C000142106F1180009F05FFF051E83D1306A0F
:1075D00030B13B462246494601F0C5FD051EDBD1D0
:1075E000706A30B13B462246494603F040FF051E13
:1075F000D2D196F82C0038B13B4622464946304657
:1076000009F0A0F8051EC7D1307838B13B462246B4
:107610004946304603F0B0FF051EBDD128465AE763
:1076200018B504460020ADF8000013466A4620460F
:1076300000F006F8002802D0BDF80000204418BD74
:1076400070B588B182B10024158803E0065D641C22
:107650003444A4B2A54203D8061976789E4201D0DC
:107660008C42F3D38C4201D3002070BDA11C118049
:10767000005D401E80B270BD80F830107047FFF78B
:107680008DBB2DE9F0410E00044606D02CB196F8D2
:107690007A000025012803D006E00E20BDE8F08125
:1076A00096F89800012821D04FF00108A5702C22EF
:1076B00006F17801201DFEF7D9FE84F83050D6F887
:1076C000A4006063D6F8A800A0634FF6FF70A4F88A
:1076D000A80004F19400C4F8A400C4F8AA50A4F8C7
:1076E000AE5084F8B050207810B104E00720D5E700
:1076F000FF2084F8540004F155011F27C4F89410AA
:10770000A4F8987004F198023046FFF7C8FE0028EC
:10771000C4D116F13C0F0ED004F17401C4F89C10D2
:10772000A4F8A07004F1A00206F13C00FFF7B7FE38
:107730000028B3D103E0C4F89C50A4F8A05084F80A
:107740005180208BA4F8480084F83C80256484F89C
:10775000505060696064464604F13C02002104F127
:10776000540072DF002899D1267097E710B502887F
:10777000102A1BD0112A20D0262A1DD1007A0C46AF
:10778000012801D0022817D1A0780521401CB0FBA8
:10779000F1F201FB1201204600F063F800280BD043
:1077A000A16B002908D0BDE810400847C27B012A20
:1077B00002D18088A1F8A80010BD0C46002184F8F1
:1077C000B2108088B4F8A8108842F5D1207900283A
:1077D000F2D10121DFE710B50C46022801D00328C1
:1077E00010D1607800280DD000206070A17820466C
:1077F00000F037F8002805D0A16B002902D0BDE8C1
:107800001040084710BD90F8B1205AB1002280F80E
:10781000B1200A6840F8AA2F8A888280897981710C
:10782000002070470820704710B5044690F85400B7
:1078300074DF012084F8B200002084F8B40084F8DA
:1078400050000621204602F0E3F9002808D1A17873
:10785000204600F006F810B1A16B01B18847002066
:1078600010BD2DE9F05F044600780F4638B1A770CF
:10787000002004F0E3FB012620B1667007E1082038
:10788000BDE8F09F0025C4F8AA50A4F8AE5084F8D3
:10789000B050A07910B1A078012806D0E07968B185
:1078A000A078012801D0022808D1616B21B184F8A9
:1078B000B1600820884701E084F8B15004F1AB01C1
:1078C00000200A5C0AB1304603E0401C0628F8D3C9
:1078D00000204FF002084FF0030B012F06D0022FBB
:1078E0000CD0032F0FD0042F15D110E0A17929B1AE
:1078F00094F8241011B908B130460DE0E17911B1C6
:1079000008B1404608E0207A08B1584604E0607AA1
:1079100008B1042000E02846A070616B41B1032843
:1079200001D0042804D1607910B194F8B200A0B15C
:1079300084F8B35004F13C0018210746FEF7AFFD70
:1079400004F12C0084F83C60814607F039FB58B103
:1079500094F82C0084F8510008E084F8B45084F8BE
:10796000B36007208847E5E784F8516094F8240065
:1079700050B1484607F024FB20B194F8280084F861
:10798000520001E084F8526084F85050A27804F16B
:10799000AA0104F194094FF0060A052A60D2DFE833
:1079A00002F078030F223F0084F83160C4F8A4503D
:1079B000C4E9101584F83C808020A4F8480051E008
:1079C00084F8318094F82420384612B107220270DE
:1079D00001E080F800B0228A8281C4F8A45041609E
:1079E000E168B9603EE06069B860208BB88194F8C6
:1079F00024003D4610B184F83CA001E084F83C60CE
:107A0000204609F005FD40B185F814800421204688
:107A100002F0FEF820BB05211EE084F831B01DE025
:107A2000E069B860208CB88194F824003D4610B11C
:107A300084F83CA001E084F83C60204609F0E8FCB2
:107A400048B185F814800421204602F0E1F838B9E5
:107A500084F831A002E0042184F83110C4F8A49025
:107A6000A07878B13A4604F15400D4F8A41072DF3B
:107A700000287FF405AF94F8301094F8540073DFB9
:107A80000028F6D1616B11B194F8310088470020CD
:107A9000F6E684F83150F5E790F8B330009933B149
:107AA000002380F8B3300A4303D0012102E008200C
:107AB0007047002180F8B41000207047F7B594B0EB
:107AC000174605003CD0287C9DF8541000248842BD
:107AD00052D000264FF0010E0D9615A8ADF834E0F7
:107AE0000E90ADF83660E9880DAA4FF6FF70ACDF56
:107AF000040026D19DF854002874687CA0B30F962A
:107B0000109611961296E888ADF83C00BDF8360044
:107B1000ADF840000DA811900E981290A7F57F4087
:107B20008DF83EE0FE3805D039460FA8FFF78EFCF1
:107B3000044621E0684600F09DF800256F460FE0FE
:107B40000E2017B0F0BD00BF07EB4506B08800F06F
:107B5000D9F8022803D144B10FA9B088AEDF6D1C5B
:107B60000098A842F0D807E005E0B1880FA8FFF719
:107B70006DFC0446F3E708242046E2E738B50D46DD
:107B8000040018D0BDB12868206028796074FF20F7
:107B9000207401208DF8020041F60F00ADF80000BE
:107BA000221D69460120A8DF002803D1294620466E
:107BB000FFF77EFB38BD0E2038BD38B5002924D034
:107BC000002822D00288502A1FD10546487C0C4646
:107BD00000281AD0E9886289A81D914215D14189EF
:107BE000022912D1216800290FD00C3000F020FDAD
:107BF00008B1002000E001208DF80000A888ADF851
:107C00000200226869462046904738BD70B50400DE
:107C100012D001461C221448FEF728FC1248134DCE
:107C20000560206850B17ADF002806D1206801681D
:107C300029604068686005E00E2070BD0B487BDF5E
:107C40000028FAD108484FF6FF711438084A20F886
:107C5000041B0549343901600021FFF731F9002880
:107C6000EBD0032070BD0000742B0020FC25002009
:107C7000A91303000149496801F056BA902B00206E
:107C800010B5044600F094F808B1204610BD142049
:107C900010BD000010B5044600F08AF8002805D099
:107CA0002146BDE81040024803F089BD10BD000028
:107CB000A02B002070B515460E46044609F0B4FB13
:107CC000002809D0054800EB840080692A46314627
:107CD000BDE8704001F0DABF70BD0000902B0020BD
:107CE00070B50546002400F063F838B12946044811
:107CF00003F065FD08B1022400E00124204670BDB8
:107D00009C2B002070B50546002400F051F838B1D6
:107D10002946044803F053FD08B1022400E0012481
:107D2000204670BD982B002010B51821034803F0A1
:107D300021FD182800D0C0B210BD0000902B0020FB
:107D400070B505460C46084609F06EFB60B1284642
:107D500000F02EF840B10548294600EB8400BDE84C
:107D60007040183003F02BBD002070BD902B002018
:107D700070B5054614460E46084609F055FB002826
:107D800012D0284600F014F800280DD007482946E4
:107D900000EB860018301CB1BDE8704003F01ABD3E
:107DA000BDE8704003F0CBBC70BD0000902B0020FC
:107DB000142801D3002070470146014803F0FFBC9E
:107DC000942B00207CB5054608880C46093090426B
:107DD00001D90C207CBD68466DDF0028FAD12188CE
:107DE0000820685420881B21401C80B22080295420
:107DF0002088401C80B220802844DDF801100160FA
:107E0000BDF8051081802088801D80B220809DF8FB
:107E10000010490800D0012129542088401C2080EE
:107E200000207CBD7FB5044601208DF8060041F698
:107E30000A00ADF80400454A01A90120A8DF002886
:107E40007ED1228804F13C0552B140482B46801C6B
:107E5000009042F62920616801F082F8002873D171
:107E6000228952B139482B460A30009042F624202C
:107E7000E16801F075F8002866D1228A52B13348D2
:107E80002B461230009042F62520616901F068F817
:107E9000002859D1228B52B12C482B461A30009021
:107EA00042F62720E16901F05BF800284CD1228CD2
:107EB00052B126482B462230009042F62620616AB5
:107EC00001F04EF800283FD1228D52B11F482B46B9
:107ED0002A30009042F62820E16A01F041F800289B
:107EE00032D1216B71B102A808F02CFF17482B4644
:107EF00032300090082202A942F6232001F030F827
:107F0000002821D1606B58B110492B463A310091BD
:107F10000279016842F62A2001F022F8002813D1E4
:107F2000A16B81B102A807F005FC08482B4642303E
:107F30000090072202A942F6502001F011F800E05B
:107F400002E0002800D1002004B070BD5A260020B5
:107F5000F8B5018804463B2943D016DC25484FF08C
:107F60000302254D0088102902EB004016D00026A0
:107F7000112927D0212907D10096A08869468FDFD3
:107F8000002801D0FEF70AFFF8BD56292DD0572949
:107F9000FAD1BDE8F840012000F008BF17A104F0B5
:107FA0000FFD072000F078FD08B1FEF7F7FEA1886D
:107FB0002980154803F066FD0028E5D0BDE8F840AB
:107FC000FEF7ECBE11A104F0FBFC002000F0EEFE79
:107FD0004FF6FF70288011480670112000F05CFDFC
:107FE000EAE78088132176DFE6E78088132176DFD1
:107FF000E2E70000482800201A220020436F6E6E3E
:108000006563746564000000C82A002044697363D6
:108010006F6E6E656374656400000000B823002015
:1080200010B51A4C0188606810290ED011292BD187
:10803000401E606028D1FEF736FD002824D021685C
:10804000002921D0BDE810400847D0B90021012205
:10805000084600F0FFFC08B107280FD107220221D3
:10806000012000F0F7FC08B1072807D10422022103
:10807000002000F0EFFC20B1072802D0216801B1F8
:1080800088476068401C606010BD0000F425002037
:108090002DE9F04701883B4E40F2F3194FF6FF758A
:1080A00010291BD011293ED0122954D0502946D175
:1080B000C188F289841D914241D1618902293ED152
:1080C0008688304602F022FE050038D004F10C000C
:1080D00000F0AEFAA8B3294630464EE0C17B87884F
:1080E000044601292BD1A846284602F00FFE0500C0
:1080F00017D02F8000202872234843464A46016843
:10810000C5F80A104068C5F80E0004F1100105F129
:108110000A0002F0D9FE6872F08900280FD12946C2
:108120002AE0042013E0808802F0F0FD040006D06D
:108130006068FEF747FF08B108F0B8F92580BDE890
:10814000F087FFE76868FEF73DFF0028F7D0BDE83D
:10815000F04708F0ABB987880646384602F0D6FDEE
:108160000400ECD02B464A4606F1080104F10A004F
:1081700002F0AAFE607221463846BDE8F04701F0E1
:108180005DB80000742B0020FC2500202DE9F04F85
:108190000746858802883D48012197B08346102A0A
:1081A00009D0112A49D01A2A6CD1387AB1EB101FA4
:1081B00045D2012244E0354C083CA068C0430B90F6
:1081C00061680BA803F01FFB0B990CA800F0ACFF33
:1081D0002C220CA96846FEF749F90026E946A0467C
:1081E00010E000BF09EB46005FF00004B0F804A007
:1081F00008EB84005146001D03F0A1FA641C1D2CFD
:10820000F6D3761C0098B042ECD8142D05D317B0E5
:108210000420BDE8F04FFEF7C1BD2946584603F0E3
:10822000D9FA294608F1040003F0D4FAF87B0128B2
:1082300028D016482946001D15E029461AE00022DC
:108240000221B1EB101F01D2012600E000260F49E8
:10825000083901F11000041D294682B103F0BAFA71
:1082600036B12946204617B0BDE8F04F03F0B2BA48
:108270002946204617B0BDE8F04F03F060BA03F07E
:108280005EFAF5E717B0BDE8F08F0000982B0020EC
:1082900010B504460748007800280AD0204602F0AE
:1082A00037FA204608F096FA2046BDE8104001F063
:1082B00043BE10BD2C260020F0B50646A3F57F4036
:1082C00087B017460C461D46FF3832D0ADF8044043
:1082D0006A461946D6F87801FFF7BDF8002824D180
:1082E000009820B3801C0090082C03D82246394601
:1082F000FEF7BCF800200290039004900590B6F8B9
:108300004E11ADF80C0001A8ADF80810CDE9040736
:1083100001218DF80A1002A92846AEDF002804D1F9
:10832000BDF80410A14200D00C2007B0F0BD05201C
:10833000FBE70820F9E72DE9F0410546887A86B089
:108340000C460A2805D8207C0A2802D8207E0A2854
:1083500003D9072006B0BDE8F08120682860606876
:108360006860A07AA874207C85F87800207E85F863
:10837000DE0001278DF80E7041F61200ADF80C00FA
:1083800005F1080203A93846A8DF0028E2D100263B
:1083900009E0A06B6A4630F816102889A9DF00288A
:1083A000D8D1761CF6B294F83600B042F1D8207AD3
:1083B0004FF0000808B9607A30B104F13C0128465A
:1083C00007F050FA0028C5D12146284602F064FC87
:1083D0000028BFD12146284606F08CF80028B9D1E4
:1083E000207E20B3E06910B300261DE0E069CDF8DF
:1083F000108000EBC6039DF8100006EB860140F0EC
:108400000A008DF81000181D05EB4101CDE90007A9
:10841000E031029133F8022B04A9284607F0A6FCAC
:10842000002897D1761CF6B2207EB042DED82146D5
:10843000284607F034FD00288CD1207A90B105F54C
:10844000A770009004F14303082242F62221284637
:1084500000F00FF9002899D12146284600F073F961
:10846000002893D1607A60B105F5AF70009004F1F7
:108470004003082242F63321284600F0FAF800288B
:1084800084D12146284601F0C8FF002888D104F194
:108490003E01284601F07CFF002894D1E168C5F830
:1084A0007C116169C5F88011E169C5F8841151E753
:1084B0002DE9F04786B00546807C0F46DDF8389000
:1084C0009A461646B8424FD907EB870005EB4000A5
:1084D000A9F57F4100F11408FF3943D0ADF80060E1
:1084E000002405AA4946D5F87801FEF7B4FF002814
:1084F00005D1059810B1133005900AE0052006B0AB
:10850000BDE8F08730F834000599641C0844E4B2F3
:108510000590D5F87C01BC42F4D330F83700B04266
:108520001ED3324651460598FDF7A0FF002001906A
:10853000029003900490B8F80010ADF804100121E7
:108540008DF80610ADF808006846CDE9030A01A9C8
:108550004846AEDF0028D2D1BDF80010B142CED0DF
:108560000C20CCE70820CAE70720C8E70A460146E6
:1085700010460A88102A05D0502A05D0512A05D164
:1085800005F07CBE05F038BC05F0E0BE70472DE973
:10859000F8430D460446DDE9081890F878001E46B9
:1085A0001746A84202D20720BDE8F8836A46D4F8ED
:1085B0007801FEF750FF0028F6D1009858B3133029
:1085C0000090002008E0D4F87C11009A31F83010B7
:1085D000401C1144C0B20091A17C8142F3D800201C
:1085E00008E0D4F88011009A31F83010401C114492
:1085F000C0B20091A842F4D3D4F88001B91930F880
:108600003500884209D300983A4681194046FDF763
:108610002DFF0020C8E70520C6E70920C4E770B594
:1086200004460D460846FDF745FF2080656070BD95
:10863000007800F0010070470A78027049784170B4
:108640000220704708B504F0FDFC08B1FEF7A6FB58
:10865000002000906946012004F084FB08B1FEF779
:108660009DFB684604F000FC002801D0FEF796FB55
:1086700008BD2DE9F0438FB00024DDF85890804606
:1086800007949DF81C000F4620F00F00401C20F0BE
:10869000F00010308DF81C0018788DF81D009DF842
:1086A0001E001D4620F00600801C8DF81E00164698
:1086B0001C216846FDF7F3FE9DF8000040F0020023
:1086C0008DF80000A978090702D040F0080001E009
:1086D00020F0080040F010008DF8000007A8CDE958
:1086E00004400120019403948DF83A000694ADF8FB
:1086F00038700D9468788DF83400A8788DF83500BE
:108700009DF83600142120F00600801C20F0110096
:1087100040F008008DF8360008A8FDF7C0FE0EA84E
:1087200008900DA8ADF828400990ADF82A40ADF8A2
:108730002C600C94B8F808004B4608AA6946AADFDA
:108740000FB0BDE8F083F0B58FB00E4605461C2192
:108750006846FDF7A4FE00249DF80000039440F055
:108760000E008DF80000012701948DF8367042F656
:108770003220049405940694ADF834000C9416F855
:10878000460F8DF8300070788DF831009DF832007A
:10879000142120F00600801C20F0110040F0080099
:1087A0008DF8320007A8FDF77AFE0DA807900CA8F7
:1087B000ADF824400890ADF82640ADF828700B9431
:1087C000288905F5AB7307AA6946AADF0FB0F0BD8B
:1087D000084908B5085C0090684603F06DFED0F8C3
:1087E00010050099C84010F0010000D0012080F071
:1087F000010008BD5B1903002DE9FC410646C007D6
:108800004FF000050ED0104F00240122385D009576
:1088100000231146019503F091FD641C042CF4D350
:1088200000F04EF8B0070DD5074E0024361D00228B
:10883000305D032300951146019503F07FFD641C14
:10884000042CF4D3BDE8FC8157190300094908B58D
:10885000085C0090684603F02FFED0F80425009BCA
:108860000121994021EA0203C0F808351140C0F8FF
:108870000C1508BD571903000249085C012103F0DB
:108880007CBE0000571903000249085C002103F078
:1088900074BE000057190300084908B5085C009031
:1088A000684603F009FED0F804050099C84010F0AE
:1088B000010000D0012080F0010008BD571903001D
:1088C00010B500242046FFF7D7FF641C042CF9D311
:1088D00010BD10B500242046FFF7D6FF641C042C01
:1088E000F9D310BD10B50246064B4FF0FF30002102
:1088F0005C5C944201D1084610BD491C0429F7D3A1
:1089000010BD00005B19030070B50C4E0C004FF059
:10891000000530600BD0012000F05AF808B10220A9
:1089200004E0002000F054F800B10B2020707068C3
:1089300010B9FEF7B8F80546284670BDF4250020AA
:108940002DE9F0470D468146FFF7CCFF0446042889
:1089500036D2DFF874801B481C4EA8F10C0725B3F3
:10896000012D0ED0022D2BD104EB4400304445786C
:10897000002D25D0B968002922D02846BDE8F0474F
:10898000084704EB4401755C0E44717849B10E4A06
:108990004FF40041093A8068FEF7D0FA08B987F829
:1089A0000390B17808F80410E2E78068FEF70AFB4C
:1089B00004EB4401314418F804008D78A842D7D064
:1089C000BDE8F08760190300F0250020142B00207B
:1089D000042801D2FFF7FCBE0020704710B51B4CE5
:1089E0000246042A608820D04FF6FF71072A25D05E
:1089F0000A2A16D00E2A13D1884211D001206168AC
:108A000002F09AFA6068401C60602078401CC0B296
:108A10002070062804D104F1080060600020207056
:108A200010BDBDE8104007F0D3BE132176DF0AE089
:108A30000028F5D0BDE81040FEF7B0B98842EFD16C
:108A40000348FEF7F1FE0828F2D110BD18220020DD
:108A5000E028002070B50023042810D20D4D00EB53
:108A60004004012A02D101290CD00022094E00EB5A
:108A70004000304461B1012906D0022906D0072305
:108A8000184670BD0E30C2B22A55F9E74270F7E7BA
:108A90008270F5E7142B0020044A01460020127969
:108AA000D20702D0084600F04DB87047E4250020F8
:108AB00070B506461E480024C0E90161B00720D504
:108AC0000025012211462846FFF7C4FF6D1C04460D
:108AD000042D02D2002CF4D013E094B940F2666267
:108AE00004211448FEF7E0F804000AD1FEF7CAF8A2
:108AF000040006D10F48104A0021001FFEF7E0F9DC
:108B00000446F00712D00120FFF776FE74B9094839
:108B10000A4A00210C38FEF7D3F9040006D10548B3
:108B2000074A01210838FEF7CBF90446204670BDFC
:108B3000E42500206C190300B58E0200B5AF0200D9
:108B4000736C02002DE9F05F6A4C054600266078E0
:108B5000B34618B184F801B002F014FA664F4FF42E
:108B60007A694FF4C87A4FF00108182D62D2DFE815
:108B700005F0AC0C0C31404D62676B746B74BE7DBC
:108B80007D7D7D7DACAFB2B5BEBE0020FFF784FE1B
:108B900000284FF0000008D0FFF76EFE022D02D132
:108BA0004FF4E16008E0484606E0FFF76DFE022D55
:108BB00001D1C82000E05046410CC0034FF4FA72C6
:108BC000801841F10001257052000023FDF70AFCD6
:108BD00001462AE00020FFF75FFE00284FF000006A
:108BE00004D0FFF749FE4FF44870E5E7FFF74CFE6D
:108BF000DFE70020FFF750FE00284FF0000002D012
:108C0000FFF73AFECFE7FFF73FFED4E70020FFF77C
:108C100043FE00284FF0000002D0FFF72DFE01E0D8
:108C2000FFF732FE257041F69A1100223868FEF7F0
:108C300085F9064646E00020FFF708FE257008E0AB
:108C4000002051E025703DE084F801800120FFF70D
:108C5000FDFD002240F6CD41E8E784F801800120C7
:108C6000FFF7F4FD00224FF48041DFE77868FEF75C
:108C7000A9F90646D5F1110000D02EB10220FFF768
:108C8000FBFD84F802B01DE0012816D980B2C8218E
:108C90004843C117C90341EA5041C0034FF4FA7277
:108CA000801841F1000152000023FDF79BFB0146B3
:108CB00000227868FEF742F906460220FFF7E4FD3D
:108CC00084F802803046BDE8F09F02F05BF9B9E716
:108CD00002F058F9B4E702F055F904E002F052F955
:108CE0000020FFF7D1FD0120FFF7CEFDAAE7FFF737
:108CF000F0FDA7E7E4250020601903002DE9F84303
:108D00000546861C00208DF8000090460F464FF067
:108D100001096846FEF766F91B4C20683860D4E903
:108D20000001401AA16804F21C47081A0EE0012154
:108D3000384602F062FD02F0E7FA0146384602F0DA
:108D40005CFDD4E90001401AA168081A401C864263
:108D5000EDD8B8F1000F03D0052065F3891002E0CB
:108D6000062065F39F50A2682168114004EB810141
:108D7000C8602068304420609DF80000FEF756F976
:108D80004846BDE8F8830000F832002030B482681D
:108D90000468531C8360A154D0E901128A4202D3B3
:108DA00030BC02F078BF30BC704700007CB51C4C72
:108DB0000146002094F83E208AB194F83C2002EB52
:108DC000420204EB820599B101A80090D5E9011097
:108DD0002B786A7807F072FB132802D008E0052090
:108DE0007CBD6A78BDF804108A4201D329707CBD2D
:108DF00094F83C20002102EB420204EB8202516015
:108E000094F83C20521CD2B284F83C2094F83E30B6
:108E10005B1E84F83E30052AE9D184F83C107CBD05
:108E2000782A002070B5124C0646002094F83E5077
:108E3000062D1AD094F83D5005EB450504EB850549
:108E4000C5E901162B706A7094F83E10491C84F82D
:108E50003E1094F83D10491CC9B284F83D10052914
:108E600002D1002184F83D1070BD042070BD0000C7
:108E7000782A0020094800224FEA020180F83C20AD
:108E800080F83D2080F83E2001EB410300EB830396
:108E9000491C5A600529F7D370470000782A002042
:108EA000034803C8814201D1012070470020704768
:108EB000F832002000780221FFF742BD38B50446A1
:108EC0000320FFF7F5FD08B1FDF768FF69460020B4
:108ED000FFF71AFD08B1FDF761FF9DF800000228B9
:108EE00002D00020207038BD0120FBE705494FF07B
:108EF000FF32082841F8202002D3084480F8582087
:108F000070470000782E0020F0B54FF0FF3512B109
:108F10000023082601E008230C260C4C05E000BFC6
:108F200054F823707F1C04D05B1CB342F8D328464E
:108F3000F0BD26185DB286F8305044F82310002AA0
:108F4000F5D1E11881F85800F1E70000782E0020F3
:108F50000249084490F9300070470000782E002044
:108F60002DE9F0438FB01E46DDF8589015460F00EE
:108F7000804602D10020FDF711FF15B90020FDF752
:108F80000DFF1C216846FDF78AFA00249DF80000B9
:108F9000039440F002008DF80000012001948DF848
:108FA0003600049405940694ADF834800C9430781F
:108FB0008DF8300070788DF831009DF83200142162
:108FC00020F00600801C20F019008DF8320007A860
:108FD000FDF765FA0DA807900CA808900748ADF8B2
:108FE0002450ADF82640ADF828500B974B4607AA01
:108FF00069460088AADF0FB0BDE8F0835A2600203A
:1090000070B504464FF6FF750A462846AC4208D1B3
:109010004FF480742146104606F096F9A04209D01C
:1090200070BDFF2CFCD82146104606F080F908B12F
:10903000204670BD284670BD70B5084C050009D0AB
:1090400010342168002907D0086820604968284644
:109050008847F6E70834F4E770BD0000642E00206E
:10906000054A012120B1012805D19170FFF7E4BF25
:1090700051700020FAE77047642E00202DE9F05F60
:1090800026484168F1B3DFF898B00E688146DBF8F6
:10909000004087688078E11B21F07F45ED1CB0B966
:1090A000DFF880804FF48030C8F84403C8F8040328
:1090B0001120FDF73BFB1120FDF743FB4FF0010AA8
:1090C000C8F800A02F2004F0D9F889F802A0B54212
:1090D00000D23546124BE8193C3320F07F4018602F
:1090E000DBF800105A46091B21F07F41001B20F0DD
:1090F0007F40C91C81420FD9106818602F2004F0EE
:10910000BDF800E004E0BDE8F05F1120FDF724BBEE
:10911000BDE8F05F06F0DEBFBDE8F09F0827002045
:10912000041501400010014073B58CB006460020C4
:1091300000900D9880B100246D4621460DA802F0E4
:109140003EFB30B1009805EB400084800098401C45
:109150000090641C142CF0D32C2269463046FDF795
:1091600085F90EB070BD2DE9F04117880646B81D8F
:1091700014460D46984202D90C20BDE8F081318892
:10918000072206290AD34FF4486C4FF6FF73614556
:1091900001D9994202D17088062801D21046ECE725
:1091A000604501D99842F9D1994203D0984201D043
:1091B0008142F3D80520E85520881221401C80B256
:1091C000208029542088401C80B22080411930889A
:1091D00008F070F82188084480B220804119708816
:1091E00008F068F82188084420800020C5E7FDF7D2
:1091F000D5BD000000B587B01C216846FDF74FF9CA
:1092000000204FF42031CDE900014FF4702102918C
:1092100003218DF80C10ADF80E008DF810000590AC
:10922000054806906846FEF7F1FC002801D0FDF7DE
:10923000B5FD07B000BD0000EF91020038B54A7AD5
:109240000F4B62B100220A725969002906D001222F
:109250008DF80020ADF802006846884738BD0A7ACC
:1092600062B19B684C68024619462046FDF766FECF
:109270000028F3D0BDE8384007F018B95B68F1E783
:10928000742B0020F0B585B016460F4604461D46E7
:1092900014220B496846FDF7E9F80A488DF8087072
:1092A000ADF80240ADF80A608DF80C50017800224C
:1092B0002046FEF75DFD684600F0A4FA05B0F0BD5B
:1092C000781A03003C26002010B5064A0121064802
:1092D000FDF7F6FD002803D0BDE81040FDF75EBDA8
:1092E00010BD0000FF7302004C190300F0B587B0F9
:1092F000074600200490ADF810100590ADF812104C
:109300000190029001AA04A9384690DF060022D0FD
:1093100003F05AFF114C0346012520883A4605EB1D
:1093200000400F4903F057FBBDF8042012B9BDF807
:10933000060038B12088BDF8063005EB004009A1D1
:1093400003F049FBBDF808202AB12088154905EB38
:10935000004003F039FB07B03046F0BD1428002070
:10936000681F0300546865207265717565737465C4
:10937000642054582F5258207061636B6574206CC0
:10938000656E67746820697320746F6F206C6F6EF0
:10939000672062792025752F2575206F63746574A9
:1093A000732E0000B41F030030B5044685B00021C1
:1093B0001B4805F0BCFF00282FD00025204600F0F8
:1093C00052FF68B1112812D086281BD0A0F5405159
:1093D000023903D00146204607F0B6F8294607E0D7
:1093E00005B029462046BDE8304001F05FBF0121AD
:1093F000204601F05BFF05B00021BDE83040084881
:1094000005F0C9BF142207496846FDF72FF8ADF8EB
:109410000240684600F0D2F9E0E705B030BD000038
:1094200005260020A01903007FB50C4610B10120CD
:1094300004B070BD2079002638B141F61D550128D1
:109440001BD0022826D00F20F2E7022020710296BE
:109450000396E0680190694601A806F0E5FB50B16B
:1094600002988188E18000882081BDF80010029870
:1094700006F058FCDCE70A20DAE70A4B6A460021CE
:10948000A01D06F08DFB38B1064918398E61CE61FA
:109490000A28CDD12846CBE702488188019806F0FA
:1094A00041FCF5E7482700202DE9F0470025DFF8CB
:1094B0008C803CE06068002100EBC506012032781A
:1094C0009146FCF7C0FFD4E9062300EA020701EA4F
:1094D000030C57EA0C0728D082438B434846C4E963
:1094E000062303F09DFF3278824691460120002139
:1094F000FCF7A9FFD4E9042300EA020401EA030708
:109500004A4650460021FCF79EFF44404F403C43F2
:109510000BD17078012801D0012100E00021726890
:1095200081EA0A010AB1484690476D1CEDB298F8ED
:10953000000044468542BDD3BDE8F087D826002010
:1095400000B593B002208DF8400041F61510ADF83B
:1095500042004EF6EE60ADF844000120ADF8460042
:1095600040216846FCF79BFF0FA16846FFF757F8BC
:1095700010A80E909DF83C0020F00F00401C20F039
:10958000F00020308DF83C009DF83D0020F0FF00F9
:109590008DF83D006846FEF745FC002801D0FDF738
:1095A000FDFB13B000BD00004A4D2D4275696C648F
:1095B0000000000010B50021024802F039F980F3E4
:1095C000100010BD143700200E4910B50A784C78F1
:1095D0000023A24212D0521CD2B20A70022A00D139
:1095E0000B70084A0B780C3252F82320026088680E
:1095F000104420F07F408860012010BD03600020EF
:1096000010BD00000827002013460A460021FFF77E
:1096100039BE00002DE9F843104D0F4680461E4626
:1096200091466946286802F05EF8040014D01C21B7
:10963000FCF735FF01202071C4F81490380BC4F8F2
:109640000080C4E902606946286802F06DF806F0FF
:109650002BFA0020BDE8F8830420FBE7801C030000
:1096600010B503780022072B06D2DFE803F00504CB
:109670000610202930000A7010BD01230B700389E9
:109680008B818388CB81C06888600A7410BD0222F8
:109690000A7002898A818288CA81C2688A60807D54
:1096A000062802D00020087410BD0120FBE7032229
:1096B0000A70C2888A810289CA81C068886010BD28
:1096C00004230B70C0888881CA818A6010BD052080
:1096D000087010BD70B5064D0646002455F82410DC
:1096E00009B130468847641C042CF7D370BD0000D4
:1096F0007830002030B50446006887B00D46806899
:1097000000281FD018216846FCF7C9FE0195A06803
:109710000590207910B1012810D107E001208DF8C3
:10972000000020690290E068039005E002208DF8B7
:109730000000E0680003029060690490206881687E
:109740006846884707B030BD70B586B015460C0036
:10975000064619D0112C17D0082C15D014216846B4
:10976000FCF79DFEADF80260304601F04BF9ADF814
:1097700004000D2C0AD0862C1CD007208DF8000088
:109780000294684600F04CF806B070BD03208DF8D6
:10979000000025B12878C00701D0012000E0022098
:1097A0008DF8080000208DF80C0041F20110ADF892
:1097B0000A00E6E706208DF80000E2E710B504464F
:1097C000408801F01FF9A080024801682046BDE8EA
:1097D000104008470C2600202DE9F04107460024E0
:1097E000064E074D05E000BF56F82410384688475E
:1097F000641CE8788442F7DBBDE8F081182E002075
:109800002C26002010B50446408801F0FBF8A0800B
:10981000024801682046BDE8104008474C1A030082
:109820000149096808470000A01A030070B586B016
:10983000044614216846FCF732FEA0890125A0F5F4
:109840004040ADF8040020782A4E062833D2DFE8E5
:1098500000F0320303032C48A08900F0BDF930B9B1
:10986000E08943F6FE71A0F54040884223D8A07BF2
:109870008DF80800207803280FD000208DF809000B
:10988000A0680390606850B109208DF800006068FE
:109890000490684605F0E2F80DE00120EEE70820AC
:1098A0008DF800008DF81050F3E7A08900F094F9CE
:1098B00008B1E08930B17078002801D005F0FEF9D8
:1098C00006B070BD606820B10B208DF80000757087
:1098D000DFE70A208DF80000BDF8040005F078FAF3
:1098E000F5E713208DF800004FF6FF70ADF8040087
:1098F000CFE700001C26002038B504460E4800784B
:10990000A8B1A4F57F40FF380FD0684605F0FEFFF0
:1099100078B10521017001210171C480684606F00B
:1099200003F806F0B3F8002038BD042038BD02204B
:1099300038BD082038BD0000502700200C4808B56D
:10994000007888B1684605F0E1FF78B10621017022
:10995000684605F0E9FF0748017809B10121017364
:1099600006F094F8002008BD022008BD082008BDBC
:10997000502700203C310020F0B587B01421684604
:10998000FCF78DFD2B4C207818B16846FFF7A2FE3E
:109990004EE0201D01F02EFFB8BB4FF010204169B2
:1099A0000004026940694B1C01D100FB02F122480E
:1099B00000220161A1F54051C160204902F0FAFA8C
:1099C000002820D11F481C238C221D49006801F06B
:1099D00077FE04F033FE051E14D0022812D00027B3
:1099E0000126062D12D005A805F090FF88B106705B
:1099F0000C2D18D2DFE805F0170F170F17161716E2
:109A0000171113110B2007B0F0BD11E0267067602D
:109A1000BBE70820F7E7077105E0032100E002211A
:109A2000017100E0067105A805F07EFF06F02EF832
:109A30000020E8E75027002000280020901C0300A9
:109A400088300020F81B030038B5040014D06946A4
:109A500006F0EAF8A0B1BDF8000000EB800109486B
:109A600000EB8100C16849B1A17A39B1C168491ED2
:109A7000C1600020A07238BD052038BD062038BD69
:109A80000A2038BD143100201FB501A9684606F030
:109A900087F804B010BD07B513460A466946002092
:109AA00006F07EF80EBD07B513460A46002168464B
:109AB00006F076F80EBD20B119B1006808600020EC
:109AC0007047052070470000F8B50D46040018D017
:109AD000BDB1694606F0A8F8A8B1BDF800000B4971
:109AE00000EB800001EB800001210C30666801F082
:109AF00084FE2E6060680C3068600120A072002037
:109B0000F8BD0520F8BD0A20F8BD00001431002082
:109B100018B10323002207F0F1BD0520704702238E
:109B2000002207F0EBBD12B1022307F0E7BD0520CC
:109B300070470000084910B50A69042A0AD0074A8C
:109B4000096942F8210004480121103001F055FE56
:109B5000002010BD0C2010BD3027002078300020E0
:109B600038B5044609480D46007858B164B16946D5
:109B7000284607F0BDFE002803D1BDF80010218063
:109B8000658038BD022038BD052038BD5027002033
:109B900010B504460E48007898B1A4B12188022976
:109BA00013D80C4A01EB810002EB800260885289D5
:109BB000C31C934209D807F08FFE002020806080EC
:109BC00010BD022010BD052010BD042010BD0000F6
:109BD000502700201431002043F6FE71A0F54040CC
:109BE000884201D8012070470020704710B5044614
:109BF0000078182802D1FEF797F8207010BD10B534
:109C000004460078182802D1FEF78EF8207010BDA7
:109C100070B50D460446B0F89810D0F894000122B3
:109C2000FDF7FEFC00B1057004F13C0204F1940163
:109C300004F1540072DF70BD70B513460022064671
:109C40001546862902D0112902D002E0012200E047
:109C500001250D4C73B1A179FEF78AF82A46617986
:109C60003046FEF785F80022A1783046FEF780F8EE
:109C7000002203E0A178FEF77BF82A46617830469F
:109C8000BDE87040FEF774B844260020F7B51746CB
:109C90000E0011D00098002560B1002421466846CE
:109CA00001F08DFD18B1A0B23946B0476D1C641C9F
:109CB000142CF3D32846FEBD0020FEBD406805F0FD
:109CC00045BE00000EB516A19DF8080020F00F005B
:109CD000401C20F0F00010308DF80800112202A87E
:109CE0007CDF08B1FDF75AF840F2C13078DF08B1E7
:109CF000FDF754F80020009001900620ADF8000018
:109D00001821ADF804002B20ADF80600ADF80210C4
:109D100068467ADF002801D0FDF740F80EBD00004C
:109D2000436F7A79547970655F4B6579626F6172C0
:109D30006400000010B50021044801F0EEFD002889
:109D400003D0BDE81040FDF729B810BD98290020C8
:109D500070B508B1012070BD1B4C0025207B08B1F7
:109D6000257301E000F0A4F8207808282AD2DFE863
:109D700000F02904080C10291422BDE8704000F0FE
:109D800025B8BDE8704000F081B8BDE8704000F033
:109D900063B8BDE8704000F03FB8062020706088CE
:109DA000094900EB8000283901EB80004068BDE8DC
:109DB000704004F023BC072020706560BDE870404F
:109DC00004F02ABC0F2070BD3C3100201149F0B4D2
:109DD0008A1C00200346A1F128050C18A67A4EB172
:109DE000A37200EB800405EB8404E66816B9247CBA
:109DF000012C0AD0401C80B20228EED30B704B809D
:109E00004B60F0BC41F61D5070471080F0BC00F074
:109E10003DB800003C3100200C48418801EB810234
:109E2000A0F1280101EB8201CA6852B1052101703D
:109E3000074802218180016800230122054802F0C1
:109E400023B8042202704968F6E700003C31002084
:109E5000582700200028002038B50A490848032464
:109E60000B684268898803EB810153880470DB1C0E
:109E700000201B0400909B0B034802F075F938BDCD
:109E80003C3100205827002000280020074910B549
:109E90004888091D05F018FF18B1BDE81040FFF70C
:109EA000DBBFBDE81040FFF7B7BF00003C3100202A
:109EB000F0B51F481F490125067802248B88A0F1C0
:109EC0002802082E19D2DFE806F00418181B222FEA
:109ED0002F170189491C01810021418080F80C1055
:109EE00001EB810312F8233043B100234418491CCD
:109EF00089B2A3720229F3D30570F0BD0123F5E7FF
:109F000042685288D21C1A448A800470F0BD468888
:109F10000D6806EB860602EB860256680E605560F9
:109F200013818C80062100E007210170F0BD000044
:109F30003C3100205827002030B501888488224D0C
:109F400085B0502924D0522902D0542931D103E0C0
:109F5000204601F077F92CE014221C496846FCF7F2
:109F600085FAADF80240204600F04CFDADF8040043
:109F700000F02CF9002269792046FDF7F9FE002255
:109F800029792046FDF7F4FE6846FFF717FC10E03C
:109F9000017B01290DD1817A01290AD10089A0F51F
:109FA0002451023905D10121204601F07FF907F043
:109FB000F1F900220649E878FDF77CFE05B0BDE81E
:109FC000304006F04DBB000004260020C8190300F5
:109FD0004D71020010B50446007800280FD160884A
:109FE00001F030F9608800F08BF9002807D00449AF
:109FF000608801220979BDE81040FDF7B9BE10BDA7
:10A000000426002010B5124C00202070FDF78CFEB5
:10A01000A070FDF789FEE070FDF786FE2071FDF768
:10A0200083FE6071A17818290FD0E17818290CD02F
:10A030002179182909D0182807D00121601C05F0C2
:10A040006FF901202070002010BD032010BD00001A
:10A05000042600207CB50446007808282FD1607AB9
:10A0600038BB207A4FF6FF7501280DD0072802D0A3
:10A07000082824D11EE0A08800F0AEFBA8421ED024
:10A08000012101F013F91AE0A0886A46012104F0C9
:10A09000FDFB70B90198007858B1A08800F09CFBD6
:10A0A000A8420CD0084901220979FDF761FE06F0AB
:10A0B000D7FA04E004480021401C05F06CF9BDE823
:10A0C0007C4007F067B900000426002010B5044664
:10A0D0000A4841782046FDF733FE68B10848002160
:10A0E00001EB410200EB82025288A24201D1C8B2C8
:10A0F00010BD491C1429F3D3FF2010BD16260020E3
:10A10000082C002070B5094D094E002404EB4400D2
:10A1100005EB800071784088FDF712FE20B1641CC9
:10A12000142CF3D3FF2070BDE0B270BD082C0020CA
:10A13000162600202DE9F04180460246012000212C
:10A14000FCF781F91A4F05460E467868FCF73AFF8E
:10A1500000280CD1174CD4E9062110462A4001EA08
:10A1600006031A4305D0A843B143C4E90601BDE87C
:10A17000F081404603F054F930B1D4E9040128439A
:10A180003143C4E9040105E0D4E90410A943B04314
:10A19000C4E90410D4E9060128433143C4E90601A7
:10A1A000A1687868BDE8F0410022FCF7C7BE000056
:10A1B000E41B0300D826002010B503F039F900286D
:10A1C00003D0BDE81040FCF7E9BD10BD1CB5054A41
:10A1D000D2E90212CDE900120022694604F07BFBAD
:10A1E0001CBD0000E019030003484FF6FF71818099
:10A1F0000121017000207047102600202DE9FC414C
:10A20000804600F0FFFB002403250127A0F57F41D5
:10A210002646FF3908D06A46082104F037FB18B9F2
:10A220000198841D8688056832462B4621464046A3
:10A23000B1DF042804D0082804D00B2808D002E09D
:10A24000112000E00020002F00D10B20BDE8FC8190
:10A250000027A80701D50125E6E73443F5D00024FF
:10A2600026460325E0E72DE9FC41804600F0CAFBC5
:10A270000646A0F57F40FF380ED001252A466D1C0A
:10A280000027ADB26B460821304604F029FB0400DC
:10A2900006D0072C25D025E043F20200BDE8FC8162
:10A2A000019903230A1D0B604046891DB2DF04009B
:10A2B00004D00C2C09D0052C09D009E03246082125
:10A2C000104604F083FB04460CE0012700E0002464
:10A2D0000821304604F066FB00B10324002FCDD1E5
:10A2E00000E00C242046D9E704488088A0F57F418F
:10A2F000FF3901D006F0BEB97047000010260020DB
:10A300000EB502A9019100F07DFB6A46012104F01F
:10A31000BDFA08B100200EBD019800780EBD000006
:10A320002DE9F04107464FF6FF760A48B3DF10B13A
:10A330000320BDE8F081074C43F20305A41E32461A
:10A3400061883846AFDFA842F3D16088401C608046
:10A35000F5E7000012260020428800EB82020C3252
:10A360008A4201D9022070478188A1F57F42FF3AD5
:10A3700003D0008808B10020704701207047884250
:10A3800004D20068401C01D00120704700207047B3
:10A39000F0B58FB00F4605461C216846FCF77FF8E4
:10A3A00000249DF80000039440F004008DF80000A4
:10A3B000012601948DF8366042F64C2004940594F1
:10A3C0000694ADF834000C9438788DF83000787825
:10A3D0008DF831009DF832008DF8384020F00600ED
:10A3E000801C20F019008DF83200142107A8FCF71A
:10A3F00056F80DA807900CA80890ADF824600EA898
:10A40000ADF82640ADF828600B90288905F5B773A4
:10A4100007AA6946AADF0FB0F0BD70B590B00D462F
:10A4200006461C2105A8FCF73AF800249DF8140004
:10A43000069440F002008DF814000A9401208DF873
:10A440003E00089442F64A2009940B94ADF83C0073
:10A450000D9495F834008DF8340095F835008DF89A
:10A4600035009DF83600142120F00600801C20F0F5
:10A4700019008DF8360035F8300F8DF83800000AD5
:10A480008DF83900A8788DF83A00E8788DF83B000F
:10A4900004256846FCF703F80FA800900DA801906A
:10A4A000ADF808500EA8ADF80A40ADF80C50049075
:10A4B000308906F5B3736A4605A9AADF10B070BDEE
:10A4C00070B5714892B0002440F80E4F08214460E6
:10A4D0008460C4606C4801250E30032601808470BE
:10A4E000C570017921F00F01491C21F0F0012031E4
:10A4F0000171417921F00F01491C21F0F001203157
:10A500004171817921F00F01491C21F0F0012031C6
:10A5100081710830022105808470C170417921F079
:10A520000F01491C21F0F00120314171817921F0A6
:10A530000F01491C21F0F00120318171482168464A
:10A54000FBF7ADFF51480090514801904E488DF8FF
:10A5500010500E300390083005904C208DF80850B4
:10A56000ADF824008DF809404A488DF80A5008904B
:10A57000079440F201108DF81840ADF830009DF8B6
:10A580002C008DF8364020F00F00401C20F0F00029
:10A5900020308DF82C009DF82D008DF8324020F0F1
:10A5A000FF008DF82D009DF834008DF8336020F009
:10A5B0000F00401C20F0F00020308DF834009DF892
:10A5C00035000E9420F0FF008DF835009DF8430013
:10A5D00020F00F00401C20F0F00020308DF84300E8
:10A5E0009DF8440020F00F00401C20F0F0002030C7
:10A5F0008DF844009DF8450020F0FF008DF84500DF
:10A600009DF8460020F00F00401C20F0F0002030A4
:10A610008DF846009DF8470020F00F00401C20F008
:10A62000F00020308DF847009DF83C0020F00F002E
:10A63000401C20F0F00020308DF83C009DF83D00DB
:10A64000694620F00F00401C20F0F00020308DF80B
:10A650003D009DF83E0020F0FF008DF83E009DF883
:10A660003F0020F00F00401C20F0F00020308DF85B
:10A670003F0005482030FDF75EFE002801D0FCF7C2
:10A680008DFB12B070BD0000C4230020C1E00200A9
:10A69000CD0703006C2500203EB5027802230C464E
:10A6A000B3EB520F17D1B0F80110ADF80010C1781C
:10A6B0008DF802108188ADF8041080798DF80600BD
:10A6C00002AA01A92046FCF7ABFA032202A96846B8
:10A6D000FBF7F7FE08B100203EBD01203EBD0000A3
:10A6E00010B50C46FFF7F2FCFF280CD0074900EB31
:10A6F000400001EB8000416821600189A180807ADF
:10A70000A071002010BD052010BD0000082C002005
:10A7100070B5018890B0102959D1011D2C226846CE
:10A72000FBF7A4FE9DF804004FF6FF7603213446A4
:10A730006D46B1EB500F2AD004F0FEF99DF80400ED
:10A7400040080ED001280CD0022820D118E00D9925
:10A75000281D1131FCF782F918B100BFBDF82C405B
:10A7600015E00CAA0BA9072004F0BAF90028EED1D5
:10A770000DE00D99281D491CFFF78EFF0028EDD133
:10A780000CAA0BA9072004F0ABF90028F1D1BDF801
:10A790000000291D00F03EFFB44218D0BDF80000B3
:10A7A000214600F019F9BDF80000ADF82E00002098
:10A7B000ADF83040074E8DF82C000BAD044600BFBD
:10A7C00056F8241028468847641C022CF8D310B091
:10A7D00070BD0000F4190300094A002101EB410398
:10A7E00032F82330834205D101EB410002EB8000B7
:10A7F00040887047491C1429F0D34FF6FF7070470A
:10A80000082C00202DE9F041CEB00D46070019D0EC
:10A81000C5B10DF1B8085020CDE94B80B82168468C
:10A82000FBF73DFE002042A94FEA0D06C0EBC00237
:10A8300002EB0012324441F82020401C0828F5D3D6
:10A8400000242BE00022114610466FDF4EB0BDE819
:10A85000F08150212EA8FBF722FE37F814004CABF4
:10A860004AAA072104F070F905280AD0072808D061
:10A870009DF8C900400806D0012804D043F2022008
:10A88000E4E70520E2E7C4EBC40000EB0410304429
:10A89000172208F10101FBF7E9FD641CAC42D8D393
:10A8A000EAB2002142A86FDFD0E73EB50C4605466C
:10A8B00004F042F90BE0BDF80000A04207D02846A2
:10A8C000029900F02FF810B1BDF800003EBD01AABA
:10A8D0006946072004F004F90028ECD14FF6FF7018
:10A8E0003EBD000010B50D4C18200D4A60700020D0
:10A8F0004FF6FF7100EB400302EB8303401C5980CD
:10A900001428F7D3FDF710FA6070182803D001203F
:10A910002070002010BD032010BD0000162600206E
:10A92000082C00202DE9F0410C46054600F11107E6
:10A9300001F111061022491C401CFBF7C2FD48B969
:10A94000681C00F0E9FA28B1601C00F0E5FA08B1D3
:10A95000012400E0002431463846FCF77FF83B78BC
:10A960000222B2EB530F0CD00321B1EB530F08D0EE
:10A970003378B2EB530F04D0B1EB530F01D0012168
:10A9800000E00021084201D18C4302D00120BDE843
:10A99000F0810020FBE7018811B9421892780AB1D2
:10A9A00001207047491C0829F7D30020704710B5D3
:10A9B0000C460346FFF7EFFF00280AD018882188CD
:10A9C000884205D10822A11C981CFBF77AFD08B12A
:10A9D000002010BD012010BD04F04EBA70B5044631
:10A9E000FFF7FAFE0546204603F053FF4FF6FF71CE
:10A9F00004468D4203D014B9284604F03DFA20469F
:10AA000070BD000010B5FFF761FBFF2805D00449B9
:10AA100000EB400031F8200010BD4FF6FF7010BD74
:10AA2000082C00203EB5044604F086F80EE001999B
:10AA300020464631FFF7BBFF28B9019920462A314D
:10AA4000FFF7B5FF10B1BDF808003EBD6A4602A988
:10AA5000072004F045F80028E9D14FF6FF703EBD0D
:10AA60007CB514460A000A49897802D015688D42DF
:10AA700003D323B11D688D4201D204207CBDCDE9F2
:10AA8000004313460246034804F03AFA7CBD000036
:10AA900016260020F82C002070B50C4606469AB009
:10AAA00010211848FBF7FBFC174800252EB324B3F0
:10AAB0008470620031461348FBF7D8FC382102A8A5
:10AAC0001895FBF7ECFC009518AB02AA214630461E
:10AAD000019504F015FA00280DD110AA0DF1080116
:10AAE000C0EBC0030B4442F82030401C0828F7D3C9
:10AAF000E1B210466EDF1AB070BD857000210846C5
:10AB00006EDFF8E7F82C00201626002010B50A4961
:10AB100041600A4800F06EFE58B902F0DFFA0749BA
:10AB20001C238C22087404488C39001F006800F034
:10AB3000C7FD002010BD0000841C0300D831002098
:10AB40002DE9F0412D4F002518B17D600120BDE8B1
:10AB5000F0810879012258B1294E01280CD0274CE8
:10AB60004FF002080834022821D0032842D128E0FF
:10AB70000A7103F051FD3BE05FF0000000EB800143
:10AB800016F82110022908D0401C80B20228F5D303
:10AB90003A707D6041F61D50D9E700EB800006F861
:10ABA000205006EB8000406803F028FD20E00D7186
:10ABB000A4F80480002301221248216801F064F9FE
:10ABC00016E00D71206803F019FD0D492368283146
:10ABD000498801EB810206EB8201D1F804C0C4F878
:10ABE00000C04B60A3880B81A4F8048006F82250B3
:10ABF0000028ACD07D600E20A9E70000502700207F
:10AC0000143100200028002003481621416118213A
:10AC1000C161202181617047C42500207CB51C4D95
:10AC20001C4C01A928680190606902F045FC08B13C
:10AC3000FCF7B4F8606902F0A7FC68680090032094
:10AC40008DF80100002269461C2002F07FFB08B14C
:10AC5000FCF7A4F801211C2002F02CFB0D4802F0A7
:10AC6000ADFC606902F086FC05461C2002F00EFB7C
:10AC700001462A46207802F00FFD08B1FCF78EF855
:10AC8000207802F079FD002801D0FCF787F87CBD20
:10AC900050190300C42500207FB50646887A0D466A
:10ACA00088B3E86878B300242AE0E86800EBC403BE
:10ACB000002003909DF80C0040F002008DF80C007D
:10ACC0009979090702D040F0080001E020F008005F
:10ACD00040F010008DF80C0004EB8400191D06EB09
:10ACE0004000009101221430CDE9012033F8022BFD
:10ACF00003A9304605F03AF8002805D1641CE4B2F7
:10AD0000A87AA042D1D8002004B070BD0146034803
:10AD100002888A4200D0002070470000602B00208B
:10AD20002DE9FC5F0E008346DDE90C47C6F100000B
:10AD300098469246814600D40846012503E000BFAC
:10AD400090FBFAF06D1C5045FADAA84500D945464B
:10AD500024B1002E01DB780700D5641EB80702D5A8
:10AD6000B8F1000F0AD0F80708D13CB1A54205D2CE
:10AD700020215846641EFEF709F8F6E7002E02DA95
:10AD80004E462D2102E0780703D52B215846FDF7CA
:10AD9000FDFF07F0030002280BD1B8F1000F08D126
:10ADA0003CB1A54205D230215846641EFDF7EEFFA6
:10ADB000F6E7CDE90047434652463146584606F08D
:10ADC0008FFABDE8FC9F000070B50D460446006890
:10ADD0004FF4887102F018FA4FF49071206802F075
:10ADE00013FA4FF49271206802F00EFA4FF4A27138
:10ADF000206802F009FA20681249C0F8041320689C
:10AE00006907000B40B2090E002806DA00F00F00B7
:10AE100000F1E02080F8141D03E000F1E02080F84C
:10AE2000001420680121000B40B200F01F02914085
:10AE30004009800000F1E020C0F88012C0F8001145
:10AE400070BD000010030200024600201268930744
:10AE500002D0530702D47047500714D502F0030004
:10AE6000012802D002280CD105E0C2F383100B6840
:10AE7000801C184404E00223086803EB925210443B
:10AE8000086001207047086800EB9253C2F38910F4
:10AE9000401CEEE70121814003484068014201D097
:10AEA0000120704700207047C8260020014601207D
:10AEB0008840FCF74FB900000248007A002800D013
:10AEC00001207047D8310020F0B58488A51894423D
:10AED00000D82246A41AC288D6189A4200D813462F
:10AEE000D21A4B880788BB420CD34088834209D8CA
:10AEF0008888A04206D3A84204D8C888904201D3CB
:10AF0000B04201D90020F0BD0120F0BD01218140F7
:10AF1000C80300D0012070470021425C0AB1012023
:10AF20007047491C1029F8D300207047800701D0D2
:10AF300000207047012070477CB5044601A80090AE
:10AF40000D46002322460E4805F0B8FA13280CD00F
:10AF5000002809D0082807D0112805D043F2014164
:10AF6000884201D0FBF71AFF7CBDBDF80430A34234
:10AF7000FAD8224629460248FDF754FF7CBD00005E
:10AF8000E42300200A4810B5807860B1002401E075
:10AF9000022C06D02046FDF76FFC641C042CF7D36E
:10AFA00010BD0324F6E7BDE81040FDF789BC0000A2
:10AFB000E425002003480179C90702D00078FDF795
:10AFC000C1BD7047E4250020172101804180002188
:10AFD000017141711B218171C17170472DE9FE4FD3
:10AFE0002B4D984691460F00824601D000260DE079
:10AFF000684600F03BFB6A460021504603F0B5FB73
:10B000002878009E10B99DF8090098B14A4631464B
:10B01000504605F03BFD0446014600225046FEF72F
:10B020000BFE0D2C32D008DC84B3082C2ED00B2C58
:10B030000BD12BE00520BDE8FE8F112C10D0862C03
:10B040001AD0A4F54050023820D00325B8F1000FE3
:10B0500004D0324621465046FEF776FB2846EAE702
:10B060003A4629795046FCF783FE4A46E97850462D
:10B07000FCF77EFE0025E9E73A4629795046FCF7C1
:10B0800077FE4A46E9785046FCF772FE2546DDE732
:10B09000442600202DE9F041204F0E461546044677
:10B0A0003978FCF74DFE002835D0204603F054FBDC
:10B0B00050B32046FFF7A6FC80462046B978FCF73F
:10B0C0003FFE08B1012700E00227204603F0ECFD17
:10B0D0000028404602D0FFF781FC0DE0A8F57F4133
:10B0E000FF3909D0072103F05DFC010004D00529D8
:10B0F00002D0204605F03CFA2B463246394620461F
:10B10000BDE8F041FEF7BEB82A4631462046BDE80C
:10B11000F041FEF779BABDE8F08100003C2600203E
:10B1200070B5094D0646E978FCF70AFE0446297910
:10B130003046FCF705FE014622463046BDE8704029
:10B140000123FFF74BBF0000442600202DE9F04704
:10B15000394E002780463D46DFF8E090D6F804A03F
:10B1600057E003D00446D0F81C8035E099F8002061
:10B1700002EB4201521CD2B289F8002009EBC10156
:10B1800099F80230091D9A4201D189F800504868A7
:10B190000A780446012A12D0022A02D0032A3BD19F
:10B1A00008E005F05BFE00B10127257434E005746A
:10B1B000C06900E070680028F9D170602CE0207C44
:10B1C00050BB88686060C868A0600869E060486932
:10B1D000A061F07800B165606268B168184B501AE0
:10B1E00020F07F40984202D2A168084406E0881A05
:10B1F000A16820F07F40814202D9081A206000E057
:10B20000256065600120A56020742046E56105F099
:10B2100007FEB8F10000A4D199F8001099F80100D8
:10B220008142A3D117B97168514502D00120BDE810
:10B23000F0870020FBE7000008270020542F0020A3
:10B24000FFFF7F0030B585B0054600241421684615
:10B25000FBF725F9A5F57F40ADF80250FF3815D072
:10B260002846FEF7CBFF98B10B2815D0112811D036
:10B27000A0F54051023903D00146284605F064F993
:10B2800009482246C1782846FCF772FD05B030BD5A
:10B290000E2002E00124F3E70F208DF8000068463D
:10B2A000FEF78CFAECE70000042600200A4602496B
:10B2B0008978FCF75DBD000004260020F8B505463E
:10B2C00000780C46002620420FD100208DF80000A7
:10B2D0006846FBF787FE2878204202D12043287079
:10B2E00001269DF80000FBF7A1FE3046F8BD10B521
:10B2F0004FF40041002001F0D5FB08B1FBF74EFDF3
:10B30000BDE8104001F03EBA2DE9FF410026234878
:10B3100000F06DFA2148001F074600F068FA204C43
:10B3200060680090A56800E000986946284004EB3A
:10B3300080000C30FFF788FD0028F5D101AA0099A4
:10B3400001EA050304EB8303491CDB6842F8203063
:10B35000401C00910228F2D3019800F0030001285C
:10B360000BD0022810D10198032101EB90500099D5
:10B37000BDF80A6001EB900005E00198BDF80A6095
:10B38000C0F3831008440090384600F02DFA08B14D
:10B390000098606004B03046BDE8F08110370020AE
:10B3A000F832002008B5FFF7A2FFFEF705FF05F011
:10B3B000EDFD20496846FDF781FD04F0F3F9FDF746
:10B3C00041F904F0E7FEFEF77DFCFEF7B3FCFBF766
:10B3D00085FB04F07BFBFEF7B3F8FBF729FFFFF7D3
:10B3E0006FF805F0D9F8FDF705FFFDF743FD03F011
:10B3F00051FD04F0E1F910480321008801EB004001
:10B400000EA101F0DDFAFDF75FFF05F043FC9DF8AA
:10B410000000FBF7A7FBFFF7F7FBFFF7FFFB00BF01
:10B42000FBF718FD01F0BCF90028F9D101F06CFC24
:10B43000F6E70000DD890200482800204849442042
:10B440004B6579626F617264206578616D706C65BF
:10B4500020737461727465642E000000002360F331
:10B460000F03184661F3174062F31F60704770B511
:10B47000144682880E4605462088111D0144921C00
:10B48000994201D8FE2A01D90C2070BD521C3254B9
:10B490002088FF21401C80B2208031542088401C2D
:10B4A00080B220808119288805F004FF2188084493
:10B4B00080B22080AA8842B1A96841B13044FAF72D
:10B4C000D5FF2088A98808442080002070BD07206F
:10B4D00070BD2DE9F047C7880446181D16468946F9
:10B4E000B0FBF7F1B0FBF7F207FB12009A193A44F0
:10B4F000D21CB2FBF7F2DDF820A001E02468491E5F
:10B500000029FBD13D1A8846B54216D818E0BAF199
:10B51000000F05D0211809EB08002A46091D04E098
:10B52000204409EB08012A46001DFAF79FFF00207E
:10B530002468761BA844B74201D9354600E03D4651
:10B54000002EE4D1BDE8F08730B5024659B101F0D4
:10B55000D5FA0021074C09E004EB810315685B88EC
:10B56000AB4202D11160002030BD491C8142F3D3AF
:10B57000052030BD14280020F8B50F460178144688
:10B580000546012901D1687830B12088821C9A4291
:10B590002DD8012902D006E00720F8BD69780144C2
:10B5A000891C994223D8181A801E86B2ADF8006013
:10B5B0002188B81C084469467DDF0028EDD1287831
:10B5C000022805D1BDF80010B14201D809210AE0D6
:10B5D0000821012805D16878B04202D8ADF80000F2
:10B5E00001E0ADF80060BDF80000FE2801D90C2094
:10B5F000F8BD2288401CB8542088401C80B22080AE
:10B6000039542088401C2080BDF800100844208058
:10B610000020F8BD70B505460C004FF0FF0020D0AB
:10B620004FF6FF76B5421CD00E48012241782846DD
:10B63000FCF79EFB2846FEF749FDFF2803D1FEF7E5
:10B6400061FDFF280DD0084B00EB400203EB8201A7
:10B650004D8023F8226022684A60A2880A81A2797C
:10B660008A7270BD16260020082C0020034A002193
:10B670009268C0E9002181607047000044260020E4
:10B6800070B54FF6FF750E46A84201D1002000E0CC
:10B69000401C84B208E02146304603F070FE08B139
:10B6A000204670BD641CA4B2FF2CF4D9284670BD9E
:10B6B00010B5FAF7FAFD08B1002010BD112010BD39
:10B6C00010B531B1B2FBF3F403FB14241CB1092013
:10B6D00010BD0E2010BD016000214160816082819B
:10B6E000C381084610BD70B50C460546FAF792FDB9
:10B6F000002802D021882868084470BD10B50A8847
:10B7000049888A4203D1FAF7C7FD012010BD002005
:10B7100010BD70B50C460546FAF7A1FD002802D011
:10B7200061882868084470BD10B50A8849888A4233
:10B7300003D1FAF78BFD012010BD002010BD01F0F0
:10B740001F0301229A40D243490900EB81001146B0
:10B7500000F059B80A4601F01F030121994010B5C5
:10B7600052090C4600EB820000F05DF8204000D04A
:10B77000012010BD2DE9F04180460D460024481EF1
:10B78000012101EB501716E058F82400C04390FA4D
:10B79000A0F0B0FA80F020280CD200EB4416AE42A4
:10B7A00008D231464046FFF7D5FF0028ECD130469D
:10B7B000BDE8F081641CA742E6D82846F8E74A09AC
:10B7C00050F8220001F01F0201219140084000D0F2
:10B7D0000120704701F01F0301229A40490900EB44
:10B7E0008100114600F029B8002100F017B80121AE
:10B7F00000F023B8012100F016B808B56A46FAF740
:10B80000A0FD009808BD08B56A46FAF780FD0098CB
:10B8100008BD08B56A46FAF794FD08BD08B56A4642
:10B82000FAF775FD08BD08B56A46FAF763FD08BD6D
:10B8300008B56A46FAF752FD08BD08B56A46FAF738
:10B8400059FD009808BD08B56A46FAF787FD0098CB
:10B8500008BD38B5044600258DF800506846FBF752
:10B86000C1FB21686268086890420ED9401E0860DA
:10B870000178A38AE26801FB0325227A2168101A65
:10B88000C0B20A79824200D208719DF80000FBF72D
:10B89000CDFB284638BD38B5054600208DF80000A0
:10B8A0000C466846FBF79EFBE868A98A201AB0FBA5
:10B8B000F1F12A681068431C136001709DF80000C4
:10B8C000FBF7B4FB38BD10B530B1017A42680368AC
:10B8D000891AC9B21A6006E00E2010BD03681A6802
:10B8E000541C1C601170491EC9B2F7D200680021B7
:10B8F0000171084610BDC20800F007030120895CF1
:10B9000098400840704710B5C20800F00703885CF3
:10B9100001249C402043885410BD10B560B10161E2
:10B92000172120F8021B20F8021B1B2100F8021B24
:10B93000FFF74AFB002010BD0E2010BDF0B5858832
:10B9400093B00C46002D39D1018800263E4F2429A2
:10B950003BD006DC102909D011290CD0232958D15D
:10B960004FE03A290BD0552953D129E00146204612
:10B9700002F098FA4DE0A01DFFF726FB49E02246B1
:10B98000408934F8061F814200D808466080172895
:10B9900000D217206080106970B1607960B1D7E97A
:10B9A0000001CDE90301ADF80E506088ADF810003C
:10B9B000136903A9104698476671267113B0F0BD4C
:10B9C0000146204602F0BEFA23E0011D2C2206A803
:10B9D000FAF74CFDBDF81800BDF81C2004EBC001BF
:10B9E0004A732269AAB1D7E90423CDE90423ADF84B
:10B9F0001200487B8DF814002269204604A9904764
:10BA000007E0017A207B884200D201462846FDF7F4
:10BA10006DFCA07A0028D1D0E1882846A5DF012559
:10BA200070B11128CAD001F0CFFB0246074808A127
:10BA3000008813B005EB0040BDE8F04000F0C4BF43
:10BA4000A672E572BAE70000FC1903001428002072
:10BA500073645F626C655F67617474635F6578636C
:10BA600068616E67655F6D74755F7265717565732A
:10BA70007428292072657475726E65642025732E92
:10BA80000000000020B10278DE2A03D008207047B1
:10BA90000E20704741800020704760B159B1027894
:10BAA000DE2A0AD009684160DE2101704FF6FF717D
:10BAB0004180002070470E207047082070477FB5F6
:10BAC000054600294DD0002D4BD008780C46DE28C5
:10BAD00047D1A8886188884202D1204605F0AAFC97
